:100000000C94801B0C94B11B0C94B11B0C94B11B71
:100010000C94B11B0C94B11B0C94B11B0C94B11B30
:100020000C94B11B0C94B11B0C94B11B0C94B11B20
:100030000C94B11B0C948D720C94B11B0C94B11BDD
:100040000C94B11B0C949E940C94B11B0C94B11B9A
:100050000C94B11B0C94B11B0C944DAE0D94040781
:100060000C94B11B0C94CC300C94B11B0C94B11BB0
:100070000C94B11B0C94B11B0C94B11B0C94B11BD0
:100080000C94B11B0C94B11B0C94B11B0C94B11BC0
:100090000C94B11B0C94B11B0C94B11B0C94B11BB0
:1000A0000C94B11B0C94B11B0C94B11B0C94B11BA0
:1000B0000C94B11B0C94B11B0C94B11B0C94B11B90
:1000C0000C94B11B0C94B11B0C94B11B0C94B11B80
:1000D0000C94B11B0C94B11B0C94B11B0C94B11B70
:1000E0000C94B11BFF3006311A31273131314B31BD
:1000F00036314B313B3140314B314831ECC61EC7B4
:1001000020C72DC732C7EAC63BC7E300E50005019B
:10011000F900070111010B01FD00F700D100E70014
:10012000F100F300D7001101D300E900D50015015B
:10013000FB001301ED00E100EB001701DB00CF0035
:100140000D01DD00D900DF000301EB00FF00090114
:10015000EF00084AD73B3BCE016E84BCBFFDC12FE8
:100160003D6C74319ABD56833DDA3D00C77F11BEA8
:10017000D9E4BB4C3E916BAAAABE000000803F05AB
:10018000A84CCDB2D44EB93836A9020C50B99186DC
:1001900088083CA6AAAA2ABE000000803F000D9451
:1001A00058060D94AB040D94C3040D94CB040D9428
:1001B000BD040D9476060D9450060D946C060D94B6
:1001C00085060D943E060D9496040D9499040D94A5
:1001D000AF040D94C7040D94B7060D9434060D9426
:1001E000AD060D94B5040D94B9040D94E3150D946A
:1001F000A7040D948C040D9425060D94A1040D9470
:1002000099060D94C2150D948F060D9488040D94D3
:1002100092040D94A3060D949D040D9462060D9412
:100220006A040D94D0040D942A060D9420060D94B2
:1002300048064E414E494E495459494E46CDCCCCC4
:100240003D0AD7233C17B7D13877CC2B329595E6AA
:10025000241FB14F0A000020410000C84200401C8A
:100260004620BCBE4CCA1B0E5AAEC59D74434F4DB2
:100270004D554E49434154494F4E004452595255F1
:100280004E004552524F525300494E464F0045438F
:10029000484F00536C6565702E2E2E00205A3A2070
:1002A0000020593A200042656420583A20005072DC
:1002B000696E742061626F72746564004731204515
:1002C000313520463430300047323820582059002C
:1002D000473120452D31302046323030300047390B
:1002E000310047323820582059004D65736820701E
:1002F0006F696E742063616E6E6F74206265207228
:1003000065736F6C7665640A00526573756D696E0E
:1003100067207072696E7400426C6F636B73204F5C
:100320006E652072656164792E00436C69636B2091
:10033000746F20726573756D652E2E2E004E6F20C2
:100340006D6F76652E00456E642066696C65206C65
:100350006973740A00426567696E2066696C65207E
:100360006C6973740A004D31323500534420707249
:10037000696E74696E67206279746520004E6F74CF
:10038000205344207072696E74696E670A0050725F
:10039000696E742074696D653A200050726F7465DF
:1003A000637465642050696E0A006F6E2E0A006FD8
:1003B00066662E0A00473236204465627567200063
:1003C00045256920257300426C6F636B73204F6E67
:1003D000652072656164792E008E02890282027B3B
:1003E000026D026F66660044454255473A004D3142
:1003F00031332053006F6B00426C6F636B73204F7F
:100400006E65204F66662E00454D455247454E436A
:10041000595F50415253455200434153455F4C4947
:100420004748545F4252494748544E45535300543D
:100430004F47474C455F4C494748545300534F463C
:1004400054574152455F504F574552004255494C11
:10045000445F50455243454E54004C4556454C4927
:100460004E475F44415441005A5F50524F4245004D
:100470004155544F4C4556454C005052494E545FDF
:100480004A4F420050524F47524553530041555432
:100490004F5245504F52545F54454D5000564F4CAB
:1004A000554D455452494300454550524F4D005318
:1004B000455249414C5F584F4E5F584F46460046A3
:1004C00049524D574152455F4E414D453A4D61723B
:1004D0006C696E20322E302E302028476974687582
:1004E000622920534F555243455F434F44455F5562
:1004F000524C3A68747470733A2F2F676974687538
:10050000622E636F6D2F426C6F636B73546563680B
:100510006E6F6C6F67792F426C6F636B732D4669DA
:10052000726D776172652050524F544F434F4C5F4C
:1005300056455253494F4E3A312E30204D41434893
:10054000494E455F545950453A426C6F636B732076
:100550004F6E652045585452554445525F434F55A0
:100560004E543A3120555549443A333537323136B5
:1005700061362D376636642D343334652D38666325
:10058000652D6132366530323935383632380A00F9
:100590002F2F20004D31343520533C696E6465782F
:1005A0003E206F7574206F662072616E676520282B
:1005B000302D31290A0053657474696E67205472B6
:1005C0006176656C20416363656C65726174696F07
:1005D0006E3A200053657474696E672052657472B8
:1005E00061637420416363656C65726174696F6EE9
:1005F0003A200053657474696E67205072696E7496
:1006000020416363656C65726174696F6E3A2000A6
:1006100053657474696E67205072696E7420616EE0
:10062000642054726176656C20416363656C657209
:100630006174696F6E3A2000000136372603FF3C73
:100640003D380EFF2E303E12FFFF0C0809FFFFFF62
:100650001A1C18FFFF08440AFF43FFFFFFFFFFFFBC
:1006600020643A0020693A0020703A0020643A0081
:1006700020693A0020703A006C636420636F6E74E6
:10068000726173742076616C75653A200043290AA3
:100690000061626C656420286D696E2074656D7000
:1006A0002000436F6C6420657874727564657320F4
:1006B00061726520004D65736820706F696E7420EB
:1006C00063616E6E6F74206265207265736F6C7605
:1006D00065640A004D34323120696E636F72726551
:1006E000637420706172616D6574657220757361E9
:1006F00067650A004F666673657473206170706C7D
:10070000696564004572723A20546F6F20666172A9
:100710002100546F6F206661722066726F6D2072C7
:1007200065666572656E636520706F696E740A0038
:100730003A20004F6666736574206265747765655C
:100740006E2070726F62657300207A5F6D696E3A19
:1007500020205A5F50524F42455F4F464653455402
:100760005F4D494E207A5F6D61783A202033300A20
:10077000003A2000207A5F6D696E3A20202D3330D8
:10078000207A5F6D61783A202033300A0050726F12
:100790006265205A204F66667365740047323820C0
:1007A000582059004E6F2063617365206C6967683B
:1007B000740A0041637469766520457874727564C3
:1007C00065723A2000556E6B6E6F776E20636F6DA9
:1007D0006D616E643A2022004D6573682056616C2D
:1007E00069646174696F6E2053746F707065642EF4
:1007F00000696E206D6F76655F746F2829206665CD
:1008000065645F76616C756520666F722058593A31
:10081000004C656176696E67204732360047323694
:100820002048656174696E67204E6F7A7A6C652E18
:10083000004732362048656174696E6720426564FE
:100840002E00446F6E65205072696D696E670044BA
:100850006F6E65205072696D696E670046697865D4
:1008600064204C656E677468205072696D652E0057
:10087000557365722D436F6E74726F6C6C65642076
:100880005072696D65002C2065793D0029202D3E50
:10089000202865783D002C2073793D0020436F6E41
:1008A0006E656374696E6720776974682076657217
:1008B000746963616C206C696E65202873783D00F3
:1008C0002C2065793D0029202D3E202865783D00AB
:1008D0002C2073793D0020436F6E6E656374696EE2
:1008E00067207769746820686F72697A6F6E7461C7
:1008F0006C206C696E65202873783D004C656176CC
:10090000696E6720473236002C2079693D0020202F
:1009100020446F696E6720636972636C652061743F
:100920003A202878693D003F5370656369666965C0
:100930006420582C5920636F6F7264696E6174650E
:10094000206F7574206F6620626F756E64732E0A57
:10095000003F28522965706561742076616C756569
:10096000206E6F7420706C61757369626C653B20DA
:100970006D757374206265206174206C6561737499
:1009800020312E0A003F53706563696669656420F3
:100990006E6F7A7A6C652074656D706572617475BE
:1009A0007265206E6F7420706C61757369626C651E
:1009B0002E0A003F53706563696669656420666945
:1009C0006C616D656E742073697A65206E6F74203A
:1009D000706C61757369626C652E0A003F537065B7
:1009E000636966696564207072696D65206C656E07
:1009F000677468206E6F7420706C61757369626CC7
:100A0000652E0A003F537065636966696564206EF0
:100A10006F7A7A6C652073697A65206E6F742070C6
:100A20006C61757369626C652E0A003F5370656373
:100A300069666965642052657472616374696F6E7A
:100A4000204D756C7469706C696572206E6F7420CE
:100A5000706C61757369626C652E0A003F52657433
:100A600072616374696F6E204D756C7469706C6926
:100A70006572206D7573742062652073706563699B
:100A8000666965642E0A003F53706563696669652F
:100A900064206C6179657220686569676874206E8E
:100AA0006F7420706C61757369626C652E0A003F0B
:100AB0005370656369666965642062656420746566
:100AC0006D7065726174757265206E6F7420706CE4
:100AD00061757369626C652E0A0047323620636F58
:100AE0006D6D616E6420737461727465642E20573D
:100AF000616974696E6720666F72206865617465EC
:100B0000722873292E0A004B494C4C45442E200074
:100B100020496E76616C69642065787472756465CD
:100B2000722000000060C100000000000000000012
:100B30000056430000524300005743486F6D652044
:100B400025732573257320666972737400206669A6
:100B50007273740A005A0059005800486F6D65207E
:100B60000042696C696E656172204C6576656C69DE
:100B70006E6720477269643A0A0047322F47332074
:100B800062616420706172616D65746572730A00E0
:100B900057726974696E6720746F2066696C653A74
:100BA00020006F70656E206661696C65642C20465C
:100BB000696C653A20006F70656E206661696C65CE
:100BC000642C2046696C653A200046696C65207388
:100BD000656C65637465640A002053697A653A2020
:100BE0000046696C65206F70656E65643A20006F21
:100BF00070656E206661696C65642C2046696C6561
:100C00003A20002066696C653A2000646F696E675F
:100C1000006672657368004E6F772000454E442071
:100C2000535542524F5554494E450A002220706F89
:100C300073002220706172656E743A22005355422F
:100C4000524F5554494E452043414C4C20746172DB
:100C50006765743A22004B494C4C45442E20007481
:100C60007279696E6720746F2063616C6C20737594
:100C7000622D67636F64652066696C6573207769B0
:100C8000746820746F6F206D616E79206C65766575
:100C90006C732E204D4158206C6576656C2069730D
:100CA0003A0043616E6E6F74206F70656E207375CD
:100CB00062646972200053442063617264206F6B28
:100CC0000A006F70656E526F6F74206661696C65A3
:100CD000640A00766F6C756D652E696E69742066A6
:100CE00061696C65640A004572726F723A00534420
:100CF00020696E6974206661696C0A004732382089
:100D000058205900004D32340054756E6500506112
:100D1000757365207072696E7400436F6E74726FC4
:100D20006C00506C6174650046696C616D656E7431
:100D30000053746F70207072696E740054756E6524
:100D4000004E6F2053442063617264005072696EDC
:100D5000742066726F6D20534400526573756D6523
:100D6000207072696E740053746F70207072696EB7
:100D700074005061757365207072696E7400426111
:100D8000636B004D363030204230004368616E673F
:100D9000652066696C616D656E7400466C6F7700E6
:100DA000466C6F7700466C6F770046616E207370FB
:100DB0006565640046616E20737065656400466118
:100DC0006E2073706565640042656400426564006E
:100DD000426564004E6F7A7A6C65004E6F7A7A6C69
:100DE00065004E6F7A7A6C650053706565640053D8
:100DF00070656564005370656564004D61696E00DF
:100E00004D6F76652058004D6F76652059004D6F07
:100E10007665205A004D6F766520302E316D6D005D
:100E20004D6F766520316D6D004D6F7665203130E8
:100E30006D6D004261636B00457874727564657214
:100E4000004D6F7665205A004D6F76652059004D34
:100E50006F76652058004175746F20686F6D65006E
:100E6000473238004D6F7665205A004D6F76652009
:100E700059004D6F76652058004261636B004D6FDD
:100E800076652061786973005072656865617420C9
:100E9000504C410054656D706572617475726500E7
:100EA00044697361626C65207374657070657273F8
:100EB000004D3834004175746F20686F6D650047D0
:100EC0003238004261636B00436F6F6C646F776E02
:100ED0000046616E2073706565640046616E207324
:100EE000706565640046616E2073706565640042DC
:100EF00065640042656400426564004E6F7A7A6CF6
:100F000065004E6F7A7A6C65004E6F7A7A6C650078
:100F10004261636B0043616E6E6F7420656E746531
:100F200072207375626469723A2000022E2E0042AC
:100F300061636B0020204E6F7A7A6C653A20002046
:100F4000004261636B004D696E696D756D2054657B
:100F50006D70206973203137302E004865617469E7
:100F60006E67206661696C656400457874727564AB
:100F700065206D6F726500526573756D65207072C6
:100F8000696E7400524553554D45204F5054494F9A
:100F90004E533A004D36303020486F74656E6420F1
:100FA000746F6F20636F6C6420746F206368616E70
:100FB00067652066696C616D656E740A004732383A
:100FC000205820590001021020200808102040104D
:100FD00020408002010201080402010102040810FD
:100FE000204080804020100804020180040201801B
:100FF0004020100804020108040201010204081044
:1010000020408001020408102040800000220025BA
:101010000028002B002E00310034000201000005E2
:101020000108010B01050505050705080808080268
:101030000202020A0A080804040404010101010171
:101040000101010303030303030303040707070C60
:101050000C0C0C0C0C0C0C02020202060606060616
:101060000606060B0B0B0B0B0B0B0B0250726F6281
:10107000696E67206661696C65640A0050726F6210
:10108000696E67206661696C656400205A3A2000C9
:1010900020593A200042656420583A2000000000A0
:1010A0000000000000000000000000000000000040
:1010B0000000000000000000000000000000000030
:1010C0000000000000000000000000000000000020
:1010D0000000000000000000000000000000000010
:1010E0000000000000000000000000000000000000
:1010F00000000000000000000000000000000000F0
:101100000000007FFFFE001F00000001E0FFC0782C
:10111000007FFFFE00FFE0701E07FCFFE078007F0D
:10112000FFFE03FFF0703E0FFEFFF078007FFFFE32
:1011300007F1F0707C1F3EE0F8780078001E0F8009
:101140003070781E0CE078780078001E0F00107068
:10115000F01C00E078780078001E1E000071E01C92
:1011600000E078780078001E1E000073C01E00E0CA
:1011700070780078001E3C000077801F00E0F07857
:101180000078001E3C00007F000FC0FFE078007870
:10119000001E3C00007F0007F0FFE0780078001E92
:1011A0003C00007F0003F8FFF8780078001E3C0048
:1011B00000778000FEE078780078001E3C00007325
:1011C000C0003EE03C780078001E3C000071E0006A
:1011D0001FE03C780078001E1C000071F0000FE05A
:1011E0003C780078001E1E000070F0000FE03C7894
:1011F0000078001E1F00107078180FE07C780078CF
:10120000001E0F8030703C3C0FFFF87FF87FFFFE20
:1012100007F1F0703E1F3EFFF07FF87FFFFE03FFF7
:10122000F0701F1FFEFFE07FF87FFFFE01FFE07000
:101230000F0FFC000000007FFFFE003F8000000356
:10124000F0000000000000000000000000000000AE
:10125000000000000000000000000000000000008E
:10126000000000000000000000000000000000007E
:10127000000000000000000000000000000000006E
:10128000000000000000000000000000000000005E
:10129000000000000000000000000000000000004E
:1012A000000000000000000000000000000000003E
:1012B000002020506C616E6E6572427566666572C4
:1012C00042797465733A20002046726565204D6549
:1012D0006D6F72793A2000436F6D70696C65643A86
:1012E000204A616E20323520323031390A00207CAC
:1012F00020417574686F723A2028426C6F636B737B
:101300002C204F6E65204D4B3220312E312E31294D
:101310000A00323031372D31322D32352031323A18
:10132000303000204C6173742055706461746564C2
:101330003A2000322E302E300A004D61726C696EF8
:101340000020536F6674776172652052657365740F
:101350000A00205761746368646F67205265736583
:10136000740A002042726F776E206F757420526588
:101370007365740A002045787465726E616C205242
:10138000657365740A00506F77657255700A007353
:10139000746172740A006572726F72207772697478
:1013A000696E6720746F2066696C650A00456E641B
:1013B00073746F70732025632025632025632025B7
:1013C0006300205A3A0020593A0020583A00656ECE
:1013D0006473746F7073206869743A2000446F6E90
:1013E0006520736176696E672066696C652E0A00F8
:1013F0004D32390020746F6F206C6F6E67206578F6
:1014000074727573696F6E2070726576656E74653F
:10141000640A0020636F6C64206578747275736968
:101420006F6E2070726576656E7465640A00426C3A
:101430006F636B73204F6E652072656164792E0057
:1014400000004C6F6164204E65772046696C616DC9
:10145000656E740053746F7000524553554D4520AE
:101460004F5054494F4E533A0020204E6F7A7A6CB9
:10147000653A20006368616E6765006F6620746876
:10148000652066696C616D656E74005761697420D2
:10149000666F722073746172740046494C414D4509
:1014A0004E54204348414E47450020204E6F7A7AE3
:1014B0006C653A2000200066696C616D656E742071
:1014C000756E6C6F6164005761697420666F72009D
:1014D00046494C414D454E54204348414E474500F6
:1014E00020204E6F7A7A6C653A20002000506C659F
:1014F00061736520776169742E2E2E0048656174D2
:10150000696E67206E6F7A7A6C6500484541544970
:101510004E47204E4F5A5A4C450020204E6F7A7A43
:101520006C653A2000200068656174206E6F7A7ADD
:101530006C652E00507265737320627574746F6EE3
:1015400020746F0046494C414D454E54204348415C
:101550004E47450020204E6F7A7A6C653A20007421
:101560006F20636F6E74696E75652E2E2E00616E2E
:101570006420707265737320627574746F6E0049B5
:101580006E736572742066696C616D656E74004679
:10159000494C414D454E54204348414E474500205B
:1015A000204E6F7A7A6C653A2000200066696C6183
:1015B0006D656E74206C6F6164005761697420669C
:1015C0006F720046494C414D454E54204348414EB0
:1015D00047450020204E6F7A7A6C653A2000616E94
:1015E000642070726573732074686520627574740A
:1015F0006F6E0066696C616D656E742065787472DB
:10160000756465005761697420666F720046494CC5
:10161000414D454E54204348414E474500746F208C
:10162000726573756D65005761697420666F72200D
:101630007072696E740046494C414D454E542043CA
:1016400048414E4745004E65787420506F696E746E
:1016500000746F2062652061646A7573746564004C
:10166000756E74696C207468657265206973206E8C
:101670006F20706F696E74206E656564696E6700B7
:10168000546869732066756E6374696F6E2077693C
:101690006C6C20726570656174004C6576656C6970
:1016A0006E670041737369737465642042656400FA
:1016B0004C6576656C696E67004173736973746518
:1016C0006420426564000050726F62696E670000BA
:1016D00000627574746F6E20746F20636F6E74692E
:1016E0006E7565006D616E75616C20616E64207051
:1016F0007265737320746865005069656365206165
:10170000732073686F776E20696E2074686500506F
:101710006C6163652043616C6962726174696F6EAC
:10172000004C6576656C696E6720446F6E652100BC
:10173000417373697374656420426564000020001E
:10174000627574746F6E20746F20636F6E74696E4F
:10175000756500747765657A6572732026207072EE
:101760006573732074686500436C65616E207468EE
:1017700065204E6F7A7A6C65207769746800202046
:1017800000204341524546554C20484F54212000EB
:10179000436172642072656D6F76656400436172A7
:1017A0006420696E73657274656400473238005A4C
:1017B000004261636B004E6F004733370059657319
:1017C0000047333600497320746865206E6F7A7A5B
:1017D0006C6520636C65616E3F0024F4D43050C3A7
:1017E0008E20C2A24017828B7011127A910D816CEB
:1017F000D90AA861E108C7586607615143061E4B24
:101800005D05C145A7041A411104093D98037139CA
:1018100031034036DB0265339102D4305402802E0E
:101820001D02632CEE01752AC501B028A001102706
:1018300081018F2564012B244B01E0223401AC216E
:101840001F018D200D01801FFC00841EED00971DDF
:10185000DF00B81CD200E61BC600201BBC00641AC7
:10186000B200B219A8000A19A0006A189900D1178D
:10187000910040178B00B516840031167E00B31519
:1018800079003A157300C7146F0058146A00EE13FC
:1018900066008813630025135E00C7125B006C129C
:1018A000570015125400C111510070114F00211141
:1018B0004B00D61049008D1047004610440002101E
:1018C0004200C00F4000800F3E00420F3C00060F58
:1018D0003B00CB0E3800930E37005C0E3500270E10
:1018E0003400F30D3200C10D3100900D3000600D59
:1018F0002E00320D2D00050D2C00D90C2B00AE0C46
:101900002900850C29005C0C2700350C27000E0CE3
:101910002600E80B2400C40B2400A00B23007D0B41
:1019200023005A0B2100390B2100180B2000F80A64
:101930001F00D90A1E00BB0A1E009D0A1D00800A56
:101940001D00630A1C00470A1B002C0A1B00110A19
:101950001A00F7091A00DD091900C4091900AB09BA
:101960001900920917007B091800630917004C0938
:10197000160036091600200916000A091500F50898
:101980001500E0081400CC081400B8081400A408DE
:101990001400900813007D0812006B08130058080B
:1019A0001200460812003408110023081100120822
:1019B000110001081100F0071000E0071000D00727
:1019C0001000C0071000B0070F00A107100091071A
:1019D0000E0083070F0074070F0065070E005707FE
:1019E0000E0049070E003B070D002E070E002007D2
:1019F0000D0013070D0006070D00F9060C00ED069B
:101A00000D00E0060C00D4060C00C8060C00BC0655
:101A10000C00B0060C00A4060B0099060C008D0605
:101A20000B0082060B0077060B006C060B006106AC
:101A30000A0057060B004C060A0042060A00380648
:101A40000A002E060A0024060A001A060A001006DA
:101A5000090007060A00FD050900F4050900EB0569
:101A60000900E2050900D9050900D0050900C705EC
:101A70000900BE050900B5050800AD050800A5056B
:101A800009009C050800940508008C0508008405E1
:101A900008007C050800740508006C050700650552
:101AA00008005D050700560508004E0507004705BC
:101AB00007004005080038050700310507002A0522
:101AC0000700230507001C050600160507000F0583
:101AD00007000805060002050700FB040600F504E0
:101AE0000700EE040600E8040600E2040700DB0439
:101AF0000600D5040600CF040600C9040600C3048E
:101B00000600BD040600B7040600B1040500AC04DD
:101B10000600A6040600A00405009B040600950428
:101B20000500900406008A04050085040500800471
:101B300006007A04050075040500700405006B04B6
:101B4000050066040500610405005C0405005704F7
:101B50000500520405004D04050048040500430437
:101B600005003E0404003A04050035040500300475
:101B700004002C04050027040400230405001E04AF
:101B800004001A04040016040500110404000D04E6
:101B90000400090405000404040000040400FC031C
:101BA0000400F8030400F4030400F0030400EC0351
:101BB0000400E8030400E4030400E0030400DC0381
:101BC0000400D8030400D4030400D0030400CC03B1
:101BD0000400C8030300C503030024F404D9201B38
:101BE000C40C5C0E9804C4095F0265077101F4051A
:101BF000F900FB04B30048048700C10369005803DF
:101C0000550003034500BE023A008402310053022E
:101C10002A002902250004022000E4011C00C8015A
:101C20001900AF011700980114008401130071011D
:101C300010006101100051010E0043010D0036013A
:101C40000B002B010B0020010B00150109000C01FA
:101C5000090003010800FB000800F3000800EB0086
:101C60000700E4000600DE000600D8000600D200EF
:101C70000600CC000500C7000500C2000500BD003D
:101C80000400B9000400B5000400B1000400AD0078
:101C90000400A9000400A5000300A20003009F00A7
:101CA00004009B00030098000300950002009300CD
:101CB0000300900003008D0002008B0003008800E9
:101CC00002008600020084000300810002007F0001
:101CD00002007D0002007B00020079000200770014
:101CE0000100760002007400020072000100710021
:101CF00002006F0002006D0001006C0002006A002B
:101D00000100690002006700010066000100650033
:101D10000100640002006200010061000100600037
:101D200001005F0002005D0001005C0001005B003B
:101D300001005A000100590001005800010057003D
:101D4000010056000100550001005400010053003D
:101D5000000053000100520001005100010050003A
:101D600001004F0001004E0000004E0001004D0038
:101D700001004C0001004B0000004B0001004A0034
:101D80000100490001004800000048000100470030
:101D9000010046000000460001004500000045002B
:101DA0000100440001004300000043000100420024
:101DB000000042000100410000004100010040001D
:101DC00001003F0000003F0001003E0000003E0017
:101DD00001003D0000003D0001003C0000003C000F
:101DE00000003C0001003B0000003B0001003A0005
:101DF00000003A00010039000000390001003800FD
:101E000000003800000038000100370000003700F3
:101E100001003600000036000000360001003500E9
:101E200000003500000035000100340000003400DF
:101E300000003400010033000000330000003300D4
:101E400001003200000032000000320001003100C9
:101E500000003100000031000100300000003000BF
:101E60000000300001002F0000002F0000002F00B4
:101E700000002F0001002E0000002E0000002E00A8
:101E800001002D0000002D0000002D0000002D009D
:101E900001002C0000002C0000002C0000002C0091
:101EA00001002B0000002B0000002B0000002B0085
:101EB00001002A0000002A0000002A0000002A0079
:101EC000010029000000290000002900000029006D
:101ED0000000290001002800000028000000280060
:101EE0000000280000002800010027000000270053
:101EF0000000270000002700000027000100260046
:101F00000000260000002600000026000000260039
:101F1000010025000000250000002500000025002C
:101F2000000025000000250001002400000024001E
:101F30000000240000002400000024000100230011
:101F40000000230000002300000023000000230005
:101F500000002300000023000100220000002200F6
:101F600000002200000022000000220000002200E9
:101F700001002100000021000000210000002100DC
:101F800000002100000021000000210001002000CD
:101F900000002000000020000000200000002000C1
:101FA00000002000000020000000200001001F00B1
:101FB00000001F0000001F0000001F0000001F00A5
:101FC00000001F0000001F0001001E0000001E0096
:101FD00000001E0000001E0000004D383420582074
:101FE00059205A20450070012C0190012701B001B1
:101FF0002201C0011D01F00118011002130130027D
:102000000E016002090190020401C002FF000003FA
:10201000FA004003F5008003F000D003EB00200439
:10202000E6007004E100E004DC004005D700C005D4
:10203000D2004006CD00D006C8008007C30030089B
:10204000BE00F008B900C009B400B00AAF00B00B80
:10205000AA00D00CA500000EA000500F9B00C010DD
:1020600096005012910000148C00C0158700B01724
:102070008200B0197D00D01B7800001E7300402044
:102080006E0090226900F024640040275F009029D0
:102090005A00E02B5500102E500020304B0010321B
:1020A0004600E033410090353C001037370070386F
:1020B0003200A0392D00B03A2800A03B2300603C3C
:1020C0001E00103D1900903D1400103E0F00703EA0
:1020D0000A00C03E0500003F0000403FFBFF803F7C
:1020E000F6FFC03FF1FF25753A25303275002530E7
:1020F00032753A25303275002575642025303275E9
:102100003A25303275000920000000000000000070
:1021100000000000007FFFE0000000000000000061
:10212000000000007000E00000000000000000005F
:1021300000000061F86000000000000000000000E6
:10214000000041F820000000000000000000000036
:102150000040F0200000000000000000000000002F
:102160004060200000000000000000000000005857
:1021700001A07F80000000000000004104005C63BB
:10218000A0FFC0000000000000002082005EF7A059
:10219000FFC0000000000000002082005EF7A0FFEA
:1021A000C0000000000000004104005C63A07F80CC
:1021B000000000000000008208005801A07F80009D
:1021C000000000000001041000406020FFC000007B
:1021D000000000000104100040F020FFC0000000DB
:1021E0000000000082080041F820FFC0000000004D
:1021F00000000041040061F8603F000000000000A2
:1022000000000000007000E01E0000000000000060
:1022100001FFFF807FFFE00C0000000000000001D4
:10222000FFFF800000000000000000000000000030
:1022300000007FFFE0000000000000000000000040
:10224000007000E00000000000000000000000003E
:10225000630C600000000000000000000000004768
:102260000E200000000000000000000000004F0FE2
:10227000200000000000000000000000005F0FA030
:102280000000000000000000000000005E07A07FCA
:102290008000000000000000410400406020FFC0FA
:1022A0000000000000000020820040F020FFC0007D
:1022B00000000000000020820040F020FFC000006D
:1022C00000000000004104004060207F800000000A
:1022D000000000008208005E07A07F800000000070
:1022E0000000010410005F0FA0FFC000000000000C
:1022F00000010410004F0F20FFC00000000000008C
:1023000000820800470E20FFC0000000000000000F
:10231000410400630C603F0000000000000000006A
:1023200000007000E01E0000000000000001FFFF40
:10233000807FFFE00C0000000000000001FFFF8034
:102340000000005072696E742070617573656400DE
:102350004D313235005072696E742061626F727453
:102360006564004731204531352046343030004720
:1023700032382058205900473120452D3130204631
:1023800032303030004739310000060900FE0000CD
:1023900000000001090008FE000005080806000012
:1023A00040F0C88888987810050808060000C0F832
:1023B0008888888888F80505050600012030F830EF
:1023C000200508080600002070F820202020E005E5
:1023D00009090600FF2070A8A8B8888870200509A0
:1023E000090600FFE080C0B0A828302828050909A8
:1023F0000600FFF8A88888888888A8F8050A0A06D1
:1024000000FE205050505088A8A88870030303068F
:10241000000340A0404D3731300020204E6F7A7AC3
:102420006C653A2000506C65617365207761697452
:102430002E2E2E0048656174696E67206E6F7A7A61
:102440006C65004C4F41442046494C414D454E542B
:10245000004261636B004D3731310020204E6F7AAE
:102460007A6C653A2000506C65617365207761690C
:10247000742E2E2E0048656174696E67206E6F7A27
:102480007A6C6500554E4C4F41442046494C414DB5
:10249000454E54004261636B0047333400202042B4
:1024A00065643A200048656174696E6720626564FE
:1024B0002E2E2E004C6576656C696E670041737335
:1024C000697374656420426564004261636B004215
:1024D00061636B004142532F504554472F4E594C76
:1024E0004F4E2F4F5448455200504C410053656C9D
:1024F000656374206D6174657269616C3A00426154
:10250000636B004142532F504554472F4E594C4F57
:102510004E2F4F5448455200504C410053656C6556
:102520006374206D6174657269616C3A00556E6CFC
:102530006F6164004C6F6164004C6F616420284CD3
:102540006F616465642129004261636B004E6F0016
:102550005965730076616C7565732077696C6C20C2
:10256000626520736176656400466163746F727999
:102570002043616C6962726174696F6E00417265BB
:1025800020796F7520737572653F006265640A007B
:102590002C2073797374656D2073746F707065642B
:1025A00021204865617465725F49443A200048659E
:1025B0006174696E67206661696C65640048656175
:1025C00074696E67206661696C6564004865617452
:1025D000696E67206661696C65640048656174694D
:1025E0006E67206661696C656400544845524D41D0
:1025F0004C2052554E4157415900546865726D61E7
:102600006C2052756E61776179004572723A204D87
:10261000494E54454D5020424544004572723A207F
:102620004D494E54454D50004D494E54454D502056
:10263000747269676765726564004572723A204D0D
:10264000415854454D5020424544004572723A204D
:102650004D415854454D50004D415854454D502022
:1026600074726967676572656400202F00204240BC
:102670003A0020403A00526573656E643A20006F5C
:102680006B0020746F6F206C6F6E672065787472BA
:102690007573696F6E2070726576656E7465640A15
:1026A0000020636F6C6420657874727573696F6E57
:1026B0002070726576656E7465640A006275737960
:1026C0003A2070617573656420666F7220696E7060
:1026D00075740A00627573793A2070617573656468
:1026E00020666F7220757365720A00627573793A9D
:1026F0002070726F63657373696E670A004B494C93
:102700004C45442E20004B494C4C20636175736549
:1027100064206279204B494C4C20627574746F6E52
:102720002F70696E0A004B494C4C45442E20004BDB
:10273000494C4C2063617573656420627920746F25
:102740006F206D75636820696E61637469766520BA
:1027500074696D65202D2063757272656E742063D7
:102760006F6D6D616E643A20004D36303000486107
:102770007264636F6465642044656661756C74207F
:1027800053657474696E6773204C6F616465640A85
:1027900000C4090000C40900006400000010270004
:1027A0000000007A4300007A43000020410000A0AE
:1027B000420000A0420000A0420000C8430000C840
:1027C0004220204D3835312044005A2D50726F621E
:1027D000652D50726F6265204F6666736574286D53
:1027E0006D293A0A0020204D383531205A005A2DE3
:1027F00050726F6265204F666673657420286D6D38
:10280000293A0A0020204D3235302043004C434401
:1028100020436F6E74726173743A0A002044002082
:10282000490020204D3330342050002044002049FE
:102830000020204D33303120500050494420736532
:102840007474696E67733A0A0020460020420020C3
:10285000480020204D3134352053004D617465729D
:1028600069616C2068656174757020706172616D5A
:1028700065746572733A0A00205A0020204D343284
:10288000302053004175746F20426564204C65769A
:10289000656C696E673A0A00205A002059002020B2
:1028A0004D323036205800486F6D65206F66667374
:1028B00065743A0A00204500205A0020590020582B
:1028C0000020420020540020204D3230352053009B
:1028D000416476616E6365643A20533C6D696E5F56
:1028E00066656564726174653E20543C6D696E5F17
:1028F00074726176656C5F66656564726174653E6D
:1029000020423C6D696E5F7365676D656E745F74C0
:10291000696D655F75733E20583C6D61785F7879AD
:102920005F6A65726B3E205A3C6D61785F7A5F6AC0
:1029300065726B3E20453C6D61785F655F6A6572CC
:102940006B3E0A0020540020520020204D323034CB
:10295000205000416363656C65726174696F6E201D
:1029600028756E6974732F7332293A20503C707247
:10297000696E745F616363656C3E20523C7265747E
:10298000726163745F616363656C3E20543C747272
:102990006176656C5F616363656C3E0A002045008B
:1029A000205A0020590020204D3230312058004D4F
:1029B0006178696D756D20416363656C65726174E2
:1029C000696F6E2028756E6974732F7332293A0A05
:1029D00000204500205A0020590020204D3230337D
:1029E0002058004D6178696D756D2066656564726B
:1029F000617465732028756E6974732F73293A0AA0
:102A000000204500205A0020590020204D39322056
:102A1000580053746570732070657220756E697408
:102A20003A0A0020204D3230302044300A00202065
:102A30004D3230302044002044697361626C65641B
:102A40000A0046696C616D656E7420736574746903
:102A50006E67733A0020204D3134392043203B20EB
:102A6000556E69747320696E2043656C7369757364
:102A70000A002020473231202020203B20556E695B
:102A8000747320696E206D6D0A0052657365742041
:102A9000454550524F4D0043616C696272617465E7
:102AA0002070726F62657300473339004E6F7A7A17
:102AB0006C652041646A7573746D656E74004C6555
:102AC00076656C20506C617465004261636B00FF39
:102AD000E0FFD11000FFFEFFD0FFE0FFC1FFD1E219
:102AE00040A0C8A6A22FF800238127AC00AFFF6446
:102AF000A5FF64FF64A4FFD0FFFE00060900FE07E7
:102B000001920321207FFF07FF07FF00000006005E
:102B10000001070706020080808080800080030299
:102B200002060105A0A00507070600005050F85056
:102B3000F850500507070600002078A07028F02004
:102B4000050707060000C0C81020409818050707B1
:102B50000600006090A040A89068020303060104EC
:102B6000C04080030707060100204080808040208D
:102B7000030707060100804020202040800505054E
:102B800006000120A870A8200505050600012020E8
:102B9000F820200203030602FFC040800501010661
:102BA0000003F8020202060200C0C0050505060087
:102BB00001081020408005070706000070888888FB
:102BC00088887003070706010040C040404040E08D
:102BD000050707060000708808708080F805070761
:102BE000060000F81020100808F00507070600008E
:102BF00010305090F81010050707060000F880F01C
:102C000008088870050707060000708080F0888833
:102C100070050707060000F808102020202005078F
:102C2000070600007088887088887005070706000E
:102C30000070888878080870020505060200C0C088
:102C400000C0C00206060602FFC0C000C0408004EB
:102C500007070600001020408040201005030306EF
:102C60000002F800F8040707060100804020102049
:102C70004080050707060000708808102000200526
:102C8000070706000070880868A8A87005070706EF
:102C90000000708888F8888888050707060000F01B
:102CA0008888F08888F00507070600007088808013
:102CB000808870050707060000F08888888888F0FB
:102CC000050707060000F88080F08080F8050707F8
:102CD000060000F88080F08080800507070600006D
:102CE000708880B888887005070706000088888883
:102CF000F88888880107070602008080808080802D
:102D000080050707060000381010101090600507B6
:102D1000070600008890A0C0A0908805070706005D
:102D200000808080808080F805070706000088D832
:102D3000A8888888880507070600008888C8A8989A
:102D400088880507070600007088888888887005CD
:102D50000707060000F08888F080808005070706D6
:102D6000000070888888A89068050707060000F0B2
:102D70008888F0A09088050707060000788080709A
:102D80000808F0050707060000F820202020202072
:102D90000507070600008888888888887005070767
:102DA00006000088888888885020050707060000EC
:102DB0008888888888A850050707060000888850FA
:102DC0002050888805070706000088888850202042
:102DD00020050707060000F80810204080F80307C8
:102DE00007060100E08080808080E0050505060080
:102DF000018040201008030707060100E020202082
:102E00002020E00503030600042050880501010688
:102E10000000F802020206020580400505050600D2
:102E20000070087888780507070600008080B0C821
:102E30008888F00505050600007080808870050709
:102E400007060000080868988888780505050600C8
:102E5000007088F880700507070600003048E040E1
:102E60004040400506060600FF7088887808700517
:102E700007070600008080B0C88888880107070619
:102E80000200800080808080800308080601FF2007
:102E90000020202020A0400407070600008080902A
:102EA000A0C0A090030707060100C040404040407A
:102EB000E0050505060000D0A8A8A8A80505050698
:102EC0000000B0C88888880505050600007088885D
:102ED00088700506060600FFF08888F080800506E9
:102EE000060600FF788888780808050505060000B2
:102EF000B0C880808005050506000070807008F06D
:102F00000407070600004040E0404040300505054A
:102F100006000088888898680505050600008888EE
:102F20008850200505050600008888A8A8500505DA
:102F30000506000088502050880506060600FF8818
:102F40008888780870050505060000F8102040F80C
:102F5000030707060100204040804040200107078A
:102F600006020080808080808080030707060100C1
:102F70008040402040408005020206000268900028
:102F800000000600007C3C3E5E2B3D3F2F5B5D3B1E
:102F90002C2A225C003A004361703A00205A00203B
:102FA0005900580020204D61783A2000205A002016
:102FB0005900580020204D696E3A20004F6E2000C5
:102FC0004F666600536F667420656E6473746F702D
:102FD000733A20004B64200023646566696E6520A7
:102FE0002044454641554C545F004B692000236402
:102FF0006566696E65202044454641554C545F0026
:103000004B70200023646566696E65202044454648
:1030100041554C545F00504944204175746F74759C
:103020006E652066696E69736865642120507574E9
:1030300020746865206C617374204B702C204B6980
:1030400020616E64204B6420636F6E7374616E74D4
:10305000732066726F6D2062656C6F7720696E7485
:103060006F20436F6E66696775726174696F6E2E4B
:10307000680A00504944204175746F74756E65206C
:103080006661696C6564212074696D656F75740A89
:1030900000544845524D414C2052554E41574159DC
:1030A00000546865726D616C2052756E617761794C
:1030B0000048656174696E67206661696C656400CB
:1030C00048656174696E67206661696C656400506B
:1030D0004944204175746F74756E65206661696C32
:1030E0006564212054656D70657261747572652028
:1030F000746F6F20686967680A00204B643A20008B
:10310000204B693A2000204B703A20000A20436C83
:10311000617373696320504944200A002054753A52
:103120002000204B753A2000206D61783A20002065
:103130006D696E3A200020643A2000206269617354
:103140003A20004F66660A0046616465204865695A
:103150006768742000426564204C6576656C696E12
:103160006720004661696C656420746F20656E613C
:10317000626C6520426564204C6576656C696E679B
:103180000A00290A002062797465733B2063726328
:10319000200053657474696E67732053746F726591
:1031A00064202800202863616C63756C6174656419
:1031B00029210A0020213D2000454550524F4D2035
:1031C000435243206D69736D61746368202D20281C
:1031D00073746F726564292000290A002062797473
:1031E00065733B2063726320002073746F726564A3
:1031F0002073657474696E67732072657472696593
:10320000766564202800204D61726C696E3D5634ED
:1032100037290A0028454550524F4D3D004545503D
:10322000524F4D2076657273696F6E206D69736DB4
:1032300061746368200046696C652064656C657420
:1032400065643A0044656C6574696F6E20666169F7
:103250006C65642C2046696C653A20006F70656E61
:10326000206661696C65642C2046696C653A2000B3
:103270006D0046696C616D656E7420757365643AA6
:10328000200053746174733A20002C204C6F6E67D9
:10329000657374206A6F623A2000546F74616C2009
:1032A00074696D653A200053746174733A20002C80
:1032B000204661696C65643A20002C2046696E697D
:1032C000736865643A20005072696E74733A200026
:1032D00053746174733A200048656174696E6720A5
:1032E000646F6E652E0020573A00452569202573CE
:1032F00000426C6F636B73204F6E65207265616472
:10330000792E0042656420646F6E652E0020573A66
:10331000004265642048656174696E672E00205A1A
:103320003A0020423A0020436F756E7420413A0003
:1033300020453A00205A3A0020593A00583A0047AE
:103340003238205A20466F7262696464656E0A00E2
:10335000473238205A20466F7262696464656E0095
:1033600020706F736974696F6E206F7574206F665B
:103370002072616E67652E0A003F50726F62652091
:1033800000202844525952554E29004732392041D5
:1033900075746F20426564204C6576656C696E6754
:1033A0000028422961636B00284629726F6E740001
:1033B0002852296967687400284C29656674003FA3
:1033C0002856296572626F7365206C6576656C207E
:1033D000697320696D706C61757369626C65202812
:1033E000302D34292E0A00426164205A2076616C07
:1033F00075650A004E6F2062696C696E65617220A6
:10340000677269640A00506C656173652072657348
:103410006574005052494E5445522048414C544521
:1034200044005072696E7465722068616C746564E2
:103430002E206B696C6C28292063616C6C6564219B
:103440000A00656E7175657565696E6720220000FA
:103450000060C100000000000000000000484200C1
:103460000048420000C040000000005761726E69D1
:103470006E673A20486F6D696E672042756D7020E7
:1034800044697669736F72203C20310A000202049D
:103490000000A0400000A040000000400000644385
:1034A0000000524300005743FFFFFF6175746F2512
:1034B000692E67006563686F3A004D3234004D3203
:1034C00033202573002569730025696D20256973F4
:1034D000002569682025696D2025697300256964C8
:1034E000202569682025696D202569730025697983
:1034F00020256964202569682025696D2025697368
:103500000053544F505045442E20005072696E7441
:1035100065722073746F70706564206475652074C3
:103520006F206572726F72732E20466978207468FE
:1035300065206572726F7220616E642075736520FC
:103540004D39393920746F20726573746172742E2D
:10355000202854656D706572617475726520697399
:103560002072657365742E20536574206974206120
:10357000667465722072657374617274696E67290E
:103580000A004E6F20436865636B73756D20776921
:103590007468206C696E65206E756D6265722C2092
:1035A0004C617374204C696E653A200063686563F2
:1035B0006B73756D206D69736D617463682C204C3D
:1035C000617374204C696E653A20004C696E652009
:1035D0004E756D626572206973206E6F74204C6148
:1035E0007374204C696E65204E756D6265722B3167
:1035F0002C204C617374204C696E653A20004D316B
:103600003130004D333100534420726561642065D0
:1036100072726F720A00446F6E65207072696E7408
:10362000696E672066696C650A004572726F722068
:1036300077726974696E6720746F20454550524FE8
:103640004D210A0000002100240027002A002D003F
:103650003000330001010000040107010A010000ED
:1036600020002300260029002C002F00320000013A
:10367000000003010601090100000A0B02090C0DFC
:103680000E08070304010000000000000000000015
:10369000000000000000000000000000000000002A
:1036A00000000000121110000000000000000000E7
:1036B000000000000000000000000000000066693B
:1036C0006C616D656E743A20007A5F6D696E3A20A8
:1036D00000795F6D696E3A2000785F6D696E3A20FF
:1036E000005265706F7274696E6720656E647374E2
:1036F0006F70207374617475730A0000F500010126
:1037000011241FBECFEFD1E2DEBFCDBF00E00CBF62
:1037100014E0A0E0B2E0EEE8F9E402E00BBF02C082
:1037200007900D92A234B107D9F726E1A2E4B4E0E4
:1037300001C01D92A130B207E1F71BE1CFE7DBE149
:1037400000E006C021970109802FFE010F94342468
:10375000CE37D10780E00807A9F70F9414100D9415
:10376000B6240C9400002F923F924F925F926F927A
:103770007F928F929F92AF92BF92CF92DF92EF9201
:10378000FF920F931F93CF93DF93CDB7DEB7AA9726
:103790000FB6F894DEBF0FBECDBF81E090E09093EE
:1037A000D90E8093D80E8091FA158D3409F436C461
:1037B000843511F40C94DD2E873421F0E4EBF4E32E
:1037C0000C941F2F2091F8153091F9152E313105E9
:1037D00009F429C14CF52430310509F4A9C04CF491
:1037E00037FF02C00C94372F223031050CF097C000
:1037F0007CC02B31310509F4E2C04CF42A3131058B
:1038000011F00C94372F0E946C330C94372F2C310D
:10381000310509F403C12D31310511F00C94372F16
:103820000E94CEEB0C94372F2732310509F4DEC10C
:1038300094F52332310509F47EC14CF4223231056E
:1038400011F00C94372F0E9437530C94372F2432E9
:10385000310509F4ADC12532310511F00C94372F33
:1038600011E01093F50C82ED90E00E944CCA0E948A
:103870005D511093F50C40E050E0BA018DE99BE8F2
:103880000E94519E83E090E09093D90E8093D80ED1
:1038900010938F0791C12A35310509F46AC234F4B7
:1038A0002A32310509F4DBC20C94372F2B35310550
:1038B00009F463C22C35310511F00C94372F0E94A6
:1038C00022B52FEA32E039A728A798EBE92E9EE02F
:1038D000F92E27EFC22E20E1D22E32E2232E35E040
:1038E000332E00E010E01EA288C280913D028823A2
:1038F00011F40C94372F8AE50E94DF31082F89E5F7
:103900000E94DF31182F88E50E94DF31402F612FA0
:103910000E94464281110C94372F0C943E2F81E077
:103920002230310509F080E00E94F3420C94372FD9
:1039300080E50E940E32882329F00E948EFA6B01E6
:103940007C0103C0C12CD12C760183E50E940E328C
:10395000882361F00E94A83120E030E04AE754E477
:103960000F942D1D0F948E226B017C010E9422B5B5
:1039700080915B02811105C060E083E992E00E94C2
:1039800009900E9491FB8091060E9091070EA091E4
:10399000080EB091090EC80ED91EEA1EFB1E0F9428
:1039A000F806DC01CB018C199D09AE09BF09B7FDF2
:1039B00002C00C94372F80E00E9432B5F0CF41E076
:1039C00061E081E00E94464281110C94372F80E033
:1039D00090E0A0E6B1EC89839A83AB83BC831D821F
:1039E0001E821F82188680E090E0A0EAB1E48987F9
:1039F0009A87AB87BC8780E50E940E32882319F036
:103A00000E94783101C060E068A3BE016F5F7F4F04
:103A1000CE0180960F9497090C94372F80E00E9476
:103A200033F00C94372FC090F710D090F810E0903E
:103A3000F910F090FA1020E030E048EC52E4C701B1
:103A4000B6010F946B23181674F488E50E940E32A9
:103A5000811117C020E030E048EC51E4C701B60105
:103A60000F94442110C088E50E940E32811109C0D4
:103A700020E030E048EC51E4C701B6010F94452145
:103A800002C00E94A83168A379A38AA39BA3C09017
:103A9000FB10D090FC10E090FD10F090FE1089E536
:103AA0000E940E32811109C020E030E040EB51E469
:103AB000C701B6010F94452102C00E94A8316B01D5
:103AC0007C0169837A838B839C8388A099A0AAA0B8
:103AD000BBA027EE3BEF4FE251E4C501B4010F94C8
:103AE0006B2387FF02C00C94372F22E430E048E4B8
:103AF00053E4C501B4010F94C81C181614F40C94B7
:103B0000372F24EF3DEF4FEA51E4C701B6010F9480
:103B10006B2387FF02C00C94372F22E430E042E58C
:103B200053E4C701B6010F94C81C181614F40C9482
:103B3000372F0C94432F0E949D4C80916B078093EC
:103B40002507109226070E94EED20E94DAF40E9406
:103B5000C4AC109201051092000510923C028EED4B
:103B600092E09093E6108093E5100E94E9F980EDD1
:103B700092E09093E6108093E5100E94E9F988ECBA
:103B800092E09093E6108093E5100E94E9F98CEBA7
:103B900092E09093E6108093E5100E94E9F96FEFB0
:103BA0008EEA92E00E9409900E94749E0C94372F36
:103BB0000E947B520C94372F80918F07882321F02D
:103BC00081E00E9432B5F8CF81E090E09093D90E69
:103BD0008093D80E10928F0780E090E00E944CCA2C
:103BE0000E947B521092F50C0C94372F81E00E94BA
:103BF00033F011E01093F50C40E050E0BA018AE197
:103C000093E80E94519E0E94369083E090E090934A
:103C1000D90E8093D80E10938F0780918F07882339
:103C200021F081E00E9432B5F8CF10928F0781E039
:103C300090E09093D90E8093D80E8093F50C40E0DD
:103C400050E0BA0184EA93E80E94519E85E40E9404
:103C50000E32882319F00E94993103C085E40E9436
:103C6000DF3140E050E06AE473E449835A836B83B8
:103C70007C8340E050E066EC72E448A359A36AA359
:103C80007BA321E0482FBE016F5F7F4FCE0180965E
:103C90000E94986C6B017C0185E40E940E3288239F
:103CA00019F00E94993103C085E40E94DF3140E0A1
:103CB00050E06AE473E449835A836B837C8340E079
:103CC00050E06AEC72E448A359A36AA37BA321E005
:103CD000482FBE016F5F7F4FCE0180960E94986C87
:103CE0004B015C010E94C76F62E370E080E090E0EE
:103CF0000F94C00685E20E94497280E797E199A37C
:103D000088A382E390E09A838983BE01605E7F4F3F
:103D1000CE0101960E948DF682EE92E09093E6101D
:103D20008093E5100E94E9F9A5019401C701B6014D
:103D30000F9444219B01AC0160911E0570911F05F9
:103D400080912005909121050F94452160931E05D7
:103D500070931F0580932005909321050E9468DFD2
:103D600081E08093F50C109232050E94749E0C94B1
:103D7000372F10924A040C94372F81E080934A0425
:103D80000C94372F0E94A8314B015C010AA7033025
:103D900049F0F10120813181428153810F94442106
:103DA0004B015C01F6012081318142815381C501C3
:103DB000B4010F9444212B013C012DEB37E346E87D
:103DC00055EB0F946B2387FD22C02DEB37E346E8BC
:103DD00055E3C301B2010F94C81C1816C4F00F5F5D
:103DE0001F4FF4E0EF0EF11C24E0C20ED11C34E0B2
:103DF000230E311C0430110551F1E8A5F9A581917C
:103E0000F9A7E8A70E940E32882349F3BBCFFAA591
:103E1000F33059F48092031190920411A09205118D
:103E2000B092061121E02EA3DACFA3019201F7018F
:103E300060817181828193810F944521F7016083B4
:103E4000718382839383C8010E94414AC8CF4EA1E7
:103E500041110E94C0F60E949DE30C94372F41E06F
:103E600061E081E00E94464281110C94372F8091DD
:103E70003D02882311F40C94372F89E40E940E32FE
:103E8000082F882321F00E947831E62E01C0E12C12
:103E90008AE40E940E32182F882321F00E94783184
:103EA000F62E01C0F12C002319F081E08E1528F0C8
:103EB000112389F091E09F1570F4EAEEF2E084910D
:103EC0008F010F5F1F4F882311F40C94372F0E942E
:103ED0009CFBF801F4CF0E941A320023F1F02091EC
:103EE000B40E3091B50E4E2D4203B001439F700DBC
:103EF00011248091B00E9091B10E680F791F072E9A
:103F0000000C880B990B0F94CE1C609341057093A5
:103F1000420580934305909344051123F1F02091CD
:103F2000B60E3091B70E4F2D4203B001439F700D76
:103F300011248091B20E9091B30E680F791F072E55
:103F4000000C880B990B0F94CE1C60934505709361
:103F50004605809347059093480580E50E940E3200
:103F6000882319F00E94993103C080E50E94DF3157
:103F7000882381F10023B1F020E030E048EC51E4E7
:103F800060914105709142058091430590914405EF
:103F90000F9444216093410570934205809343053B
:103FA000909344051123B1F020E030E040EB51E460
:103FB00060914505709146058091470590914805AF
:103FC0000F944421609345057093460580934705FF
:103FD0009093480586E40E940E328823D9F00E940F
:103FE000A8316B017C0120E030E0A9010F946B2324
:103FF000181684F420E030E040E752E4C701B6012F
:104000000F94212260931E0270931F02809320025E
:10401000909321020E9411B90C94372F8091F815CA
:104020009091F9158737910509F483C70CF0C0C04A
:104030008C34910509F432C40CF05AC089319105D1
:1040400009F4DFC21CF58431910509F4BCC17CF48C
:104050008131910509F444C22CF4029708F4B6C1E9
:104060000C94372F429709F4F1C50C94372F863101
:10407000910509F48BC20CF485C28731910509F4CE
:104080008BC2489709F49EC20C94372F8F3191054B
:1040900009F466C394F48B31910509F4CEC20CF493
:1040A000BEC28C31910509F405C34E9711F00C94F2
:1040B000372F0E9411E90C94372F8133910509F4B1
:1040C000BBC34CF48032910509F4FEC28A9709F40F
:1040D00073C30C94372F8934910509F4D2C38B3400
:1040E000910511F00C94372F0E940C6C0C94372F13
:1040F0008936910509F401C544F58335910509F424
:10410000A0C59CF48E34910509F4D0C30CF4CAC345
:104110008135910509F478C58235910511F00C942B
:10412000372F109249040C94372F8535910509F4E7
:10413000C4C50CF48BC58C35910509F4D9C58836F6
:10414000910509F4B7C30C94372F8F36910509F404
:1041500016C484F48B36910509F440C50CF419C5D6
:104160008D36910509F40DC58E36910509F4F4C319
:104170000C94372F8337910509F422C17CF48137E1
:10418000910509F46FC48237910511F00C94372F13
:104190000E9422B50E949DE30C94372F853791052C
:1041A00009F480C68637910509F484C60C94372F2C
:1041B0008E32E1E09E0711F40C94822B0CF06EC05D
:1041C0008B3C910509F4A4C784F58139910509F464
:1041D000BEC684F48937910509F4B4C60CF4ACC6A4
:1041E0008D37910509F40CC58C38910509F467C425
:1041F0000C94372F8E3B910509F4C7C434F48B39E6
:10420000910509F497C40C94372F883C910509F463
:1042100016C7893C910511F00C94372F7FEAE72EE1
:1042200072E0F72E01EC17E05AC78C3D910511F4AE
:104230000C949D29A4F48D3C910509F4EEC70CF46F
:1042400082C78E3C910511F40C947829833D910529
:1042500011F00C94372F0E942FD80C94372F8A3FDF
:10426000910511F40C94462B64F48D3D910511F4E5
:104270000C94A929823E910511F40C94EE290C941A
:10428000372F8C3221E0920711F40C94142A8D32CE
:10429000914011F40C94392A0C94372F853F41E05A
:1042A000940711F40C943A2D0CF043C08139F1E0DD
:1042B0009F0711F40C94D52BBCF4803331E09307A5
:1042C00011F40C94CF2A14F40C94D22B8336E1E031
:1042D0009E0709F471C08039914011F00C94372F7A
:1042E0000E9422B50C94372F853A21E0920711F4F1
:1042F0000C94DD2B7CF4823941E0940711F40C948A
:10430000D92B843A914011F00C94372F0E94F8D1A8
:104310000C94372F8C3AF1E09F0711F40C94632C26
:10432000843F914011F00C94372F0E9468DF0C9469
:10433000372F803C32E09307D9F1C4F4873FE1E0A6
:104340009E0711F40C94402D14F40C943D2D8835E7
:1043500022E0920711F40C94E62D8F3B924011F06D
:104360000C94372F05E413E00C94EB2D833543E0D8
:104370009407D1F06CF4863CF2E09F0711F40C94A2
:10438000162E873C924011F40C94192E0C94372F62
:10439000803A33E0930709F4D6C1873E934011F485
:1043A0000C94CB2E0C94372FE4EBF4E30C944D2DAE
:1043B00001E313E00C94022EE7EEFCE00C94B82E1F
:1043C000EFEBF4E01EC5E5E5F3E09CC0A090F61528
:1043D000B090F71580E50E940E32882359F00E94B4
:1043E0008EFA6B017C0111E0672B682B692B31F48D
:1043F00010E004C010E0C12CD12C760183E50E94AE
:104400000E328823F1F00E94A83120E030E04AE724
:1044100054E40F942D1D0F948E226B017C01111119
:1044200012C0672B682B692B71F4A114B10459F0E9
:10443000F5018081882339F061E0C5010E94269052
:1044400007C0112391F360E08AE293E00E94099093
:1044500083E090E09093D90E8093D80E81E0809312
:104460008F070E9422B50E9491FBC114D104E10480
:10447000F104E1F08091060E9091070EA091080ED4
:10448000B091090EC80ED91EEA1EFB1E0F94F80645
:10449000DC01CB018C199D09AE09BF09B7FF1CC017
:1044A00080918F0781110C94972F16C080918F07F0
:1044B000882321F080E00E9432B5F8CF80919B11D3
:1044C00090919C1160E0029719F488E193E002C09A
:1044D00089E093E00E94099010928F070C94372F87
:1044E00060E08DE393E00E9409905F988A989FB7FF
:1044F000F894809108018E7F809308019FBF1298E5
:104500000C94372F84918F010F5F1F4F882321F068
:104510000E949CFBF801F6CF10924C1410924B14A1
:1045200087EF91E10E94D5CC8BE1E7EFF1E1DE016D
:10453000159601900D928A95E1F78091F511909171
:10454000F6119C838B8389E193E09A83898340E011
:1045500050E0BE016F5F7F4F89E893E00E94DA4C24
:10456000CE0101960E945EF4E6E4F3E084918F01AF
:104570000F5F1F4F882311F40C94372F0E949CFB70
:10458000F801F4CF0E94C14A0C94372F1092C61143
:104590001092C7110C94372FE091F615F091F71592
:1045A0008081882329F0803209F410823196F8CF77
:1045B00040E061E08091F6159091F7150E94F64E6B
:1045C0000C94372F19821A821B821C8218A219A2FE
:1045D0001AA21BA28091C40E882341F040E0BE01C4
:1045E0006F5F7F4FCE0180960E941DF38091C711AF
:1045F000882319F081E08093C6110E940C6C0C9402
:10460000372F1092C6110E94686C86E693E0909353
:10461000E6108093E5100E94E9F90C94372F809101
:10462000C711882311F40C94372F83E50E940E32B2
:1046300081110C949C2F0C94372F8091C7118111FC
:1046400003C0EDE7F3E02AC0EBE6F3E084918F01CD
:104650000F5F1F4F882321F00E949CFBF801F6CFCB
:1046600060914214709143148091441490914514C8
:104670004AE00E9422FE8FE20E949CFB60913E1461
:1046800070913F1480914014909141144AE00E942F
:1046900022FE8AE00E949CFB0C94372F84918F01AC
:1046A0000F5F1F4F882311F40C94372F0E949CFB3F
:1046B000F801F4CF40E060E08091F6159091F71595
:1046C0000E94F64E0C94372F8091C61181110E94E2
:1046D00022B58091C711882311F40C94372F80E5FF
:1046E0000E940E32882319F00E94993103C080E5A0
:1046F0000E94DF31182F482F61E08091F6159091CC
:10470000F7150E94F64E83E50E940E32882381F051
:104710000E947831AB01BC01409342145093431482
:10472000609344147093451481E993E10E948ECA0A
:104730008091C711882319F081E08093C61111116F
:104740000C94372F5ACF8091F6159091F71521E0F0
:104750002093C51140E060E00E94F64E0C94372F84
:104760008BE991E10E9428B468A379A38AA39BA353
:10477000BE016F5F7F4FCE0180960E949EFA60E07F
:10478000CE0101960E942690E4EBF4E384918F0120
:104790000F5F1F4F882321F00E949CFBF801F6CF8A
:1047A000BE016F5F7F4F8EE893E00E94369C8AE0E7
:1047B0000E949CFB0C94372F83E50E940E328823C5
:1047C00011F40C94372F0E948831E82E80E50E9466
:1047D0000E32882341F00E9478318B0177FF02C0AE
:1047E0000C94372F02C00DE010E0802FE8E3F6E0D4
:1047F0009491891303C0E7EEFCE00AC0319626E0ED
:10480000E036F207A9F70C94AC2F0E949CFBF8014C
:1048100084918F010F5F1F4F8111F7CFEBE9F3E018
:1048200084918F010F5F1F4F882311F40C94372F51
:104830000E949CFBF801F4CFF090420481E0F8263E
:10484000F0924204E5EBF3E084918F010F5F1F4F7C
:10485000882321F00E949CFBF801F6CFFF2019F07D
:10486000EAEAF3E002C0EFEAF3E084918F010F5F20
:104870001F4F882311F40C94372F0E949CFBF801E2
:10488000F4CF8091C61181110C94372F80E50E94DE
:10489000DF3181110C94C22F0C94372F0E94686C69
:1048A0000C94372F0E94DAF40C94372F0E9421E6E3
:1048B0000C94372F88E690E00E94824A81110C9474
:1048C000372F8091DB0483FF02C00C94372F83E5E0
:1048D0000E940E328823E1F10E94A8310F948922B0
:1048E000CB010E944CCA0E94A83120E030E04AEA85
:1048F00052E40F94C81C18163CF00E94DAF460E0F1
:1049000087EC93E00E9409900E94A83120918E0EBE
:1049100030918F0E4091900E5091910E0F946B2319
:104920001816B4F488E593E09F938F938091260D39
:1049300090E001969F938F9380EC93E09F938F93E9
:104940001F920E94D16B0FB6F894DEBF0FBECDBF91
:104950000E94C19C0C94372F8EE40E940E32882353
:1049600011F40C94372F0E9478316093CA0470932D
:10497000CB048093CC049093CD040C94372F83E523
:104980000E94DF31882359F083E50E940E3288238C
:1049900019F00E94883101C080E08093DB04E4EBD1
:1049A000F4E384918F010F5F1F4F811103C0E7EE85
:1049B000F3E004C00E949CFBF801F3CF84918F01C7
:1049C0000F5F1F4F882321F00E949CFBF801F6CF58
:1049D0008091DB04811103C0E3EEF3E034C089ED84
:1049E000C82E83E0D82EE12CF12C20E08091DB044E
:1049F00090E00E2C02C0959587950A94E2F780FF0F
:104A000017C0BB24B394B20E222319F08CE20E948B
:104A10009CFBF60185919491FC0184918F010F5FBD
:104A20001F4F882321F00E949CFBF801F6CF2B2D0D
:104A30009FEFE91AF90AE2E0CE0ED11CF5E0EF167D
:104A4000F104A1F60AC084918F010F5F1F4F8823E4
:104A500021F00E949CFBF801F6CF8AE00E949CFBAB
:104A60000C94372F83E50E940E32811103C0E4EBD2
:104A7000F4E30DC00E9488318D3320F480934C0202
:104A80000C94372F8CE380934C020C94372F849135
:104A90008F010F5F1F4F882321F00E949CFBF801BC
:104AA000F6CF40914C0250E060E070E08EEE93E073
:104AB0000E94E39B8AE00E949CFB0C94372F80911C
:104AC000DB0483FF02C00C94372F83E50E940E3273
:104AD000882311F40C94372F0E94A8310F94892257
:104AE0006437710514F063E770E07093F40C609321
:104AF000F30C0E9478AC0C94372F89E690E00E946A
:104B0000824A811111C0E5EFF3E084918F010F5FBC
:104B10001F4F882321F00E949CFBF801F6CF0E94D2
:104B2000F5AB8AE00E949CFB1092D90E1092D80E31
:104B30000C94253083E50E940E32882311F40C94E6
:104B4000372F0E948831182F8D3308F01CE3109303
:104B5000030E0F94F8066B017C01212F30E0A8EEC4
:104B6000B3E00F943521C60ED71EE81EF91EC09281
:104B7000FF0DD092000EE092010EF092020E0C9406
:104B8000372F0E9440E70C94372F0E947AE40C9450
:104B9000372F80E50E940E32811108C083E50E9404
:104BA0000E32811109C03FEF20E00AC00E94883117
:104BB00081110C94372FF2CF0E947831362F272F96
:104BC000832F922F8F3F910519F010F08FEF90E017
:104BD00090930105809300050C94372F80E50E9487
:104BE0000E32811106C010920105109200050C943E
:104BF000372F0E947831672B11F00C94372FF3CFA9
:104C00000E940DD90C94372F0E94C4AC0E9422B58B
:104C10000E9401B9109201051092000510924504FE
:104C2000109244041092430468EE73E080E090E038
:104C30000E949DC860E088EF93E00E9409900C9468
:104C4000372F81E0809349040C94372F83E50E942D
:104C50000E328823A1F00E94A83120E030E04AE71C
:104C600054E40F942D1D0F948E2260934D02709387
:104C70004E0280934F02909350020C94372F88E598
:104C80000E94DF3181110C94CC2F89E50E94DF3125
:104C900081110C94CC2F8AE50E94DF3181110C9494
:104CA000CC2F85E40E94DF3181110C94CC2F0E941F
:104CB00022B50E9401B90C94372F83E50E94DF31A1
:104CC000882311F40C94372F0E94A83120E030E0A3
:104CD0004AE754E40F942D1D0F948E2260930A0E20
:104CE00070930B0E80930C0E90930D0E0C94372F37
:104CF0001FEAC12E12E0D12E07E0E02E01E1F02ED6
:104D000010E0F60181916F010E94DF31882309F4E0
:104D10006DC0133009F063C00E94A8314B015C01E3
:104D200020E030E040EA51E40F94C81C87FF4EC0F9
:104D3000A5019401609113117091141180911511C6
:104D4000909116110F9421222B013C019B01AC0183
:104D5000609138077091390780913A0790913B072D
:104D60000F942D1D609338077093390780933A078D
:104D700090933B07A30192016091540770915507EE
:104D800080915607909157070F942D1D60935407FB
:104D90007093550780935607909357076091BD070E
:104DA0007091BE078091BF079091C0070F94CC1CF3
:104DB000A30192010F942D1D0F948E226093BD07C5
:104DC0007093BE078093BF079093C0078092131122
:104DD00090921411A0921511B092161107C00E9462
:104DE000A831F70160837183828393831F5FF4E0AE
:104DF000EF0EF11C143009F084CF0E944C9D0C94EE
:104E0000372F84918F010F5F1F4F882321F00E945D
:104E10009CFBF801F6CF60E08FEA94E00E94E6D9AF
:104E200061E088EA94E00E94E6D961E08DE994E0CF
:104E30000E94E6D961E08DE894E00E94E6D960E046
:104E400084E894E00E94E6D961E08AE794E00E9459
:104E5000E6D961E080E794E00E94E6D961E088E667
:104E600094E00E94E6D961E08AE594E00E94E6D9E8
:104E700061E08CE494E00E94E6D960E08DE394E088
:104E80000E94E6D960E08FE294E00E94E6D960E0FB
:104E900089E194E00E94E6D961E088E094E00E9414
:104EA000E6D9E5C760E08091F6159091F7150E946C
:104EB0002690DDC785E40E940E32882319F00E94F7
:104EC000993103C085E40E94DF31882361F0E4EB6F
:104ED000F4E384918F010F5F1F4F882321F00E941C
:104EE0009CFBF801F6CF81E40E940E32882319F072
:104EF0000E94993103C081E40E94DF31882361F070
:104F0000E0E9F5E084918F010F5F1F4F882321F0C6
:104F10000E949CFBF801F6CF0091F6151091F71551
:104F2000F80181918F01882309F497CD0E949CFBA1
:104F3000F7CF0F94F80A9BC781E080937C11809390
:104F40007B1195C710927C1110927B1190C783E55D
:104F50000E940E32882319F00E94783102C060E06E
:104F600070E08B01112702301105D4F0E7EEFCE070
:104F700084918F010F5F1F4F811103C0E4E9F5E0B9
:104F800004C00E949CFBF801F3CF84918F010F5F56
:104F90001F4F882309F46BC70E949CFBF801F5CFD3
:104FA00088E40E940E328823A9F00E9478316A3A80
:104FB00071053CF06431F1E07F072CF063E171E0B2
:104FC00002C06AEA70E0F801EE0FFF1FEC50FB4FE1
:104FD0007183608386E40E940E328823A9F00E94C8
:104FE0007831F801EE0FFF1FE450FB4F71836083AF
:104FF0006F3F710519F014F06FEF70E077FF02C09A
:1050000060E070E07183608382E40E940E32882346
:1050100009F42DC70E9478316530710534F065368A
:1050200071052CF064E670E002C065E070E0000FEE
:10503000111FF801E850FB4F7183608318C788EC9B
:1050400090E00E94824A811112C784E40E94DF31FD
:10505000882309F441C00E94A8316B017C0111E052
:1050600020E030E0A9010F94C81C811101C010E0BC
:105070001093270720E030E0A901C701B6010F9483
:10508000C81C882349F10E94A831E091260D24E034
:10509000E29FF0011124E85DF84F60837183828301
:1050A000938320E030E0A9016091280770912907DF
:1050B00080912A0790912B070F94C81C81110CC076
:1050C00080E090E0A0EEBFE380932807909329074B
:1050D000A0932A07B0932B070E94B582C8C6F70198
:1050E00081917F010E94DF31882349F00E94A8311D
:1050F0000F948E22F80160837183828393830C5F07
:105100001F4FF7E0013D1F0751F70E94F19CAFC60A
:105110006FEAE62E62E0F62E08E417E0F7018191CF
:105120007F010E94DF31882339F00E94A831F80105
:1051300060837183828393830C5F1F4FF7E0083590
:105140001F0761F794C683E50E94DF318823D9F0F9
:105150000E94A831AB01BC01409340075093410726
:10516000609342077093430740933C0750933D0779
:1051700060933E0770933F0780E196E00E94009C99
:105180008AE00E949CFB80E50E94DF31882399F031
:105190000E94A831AB01BC014093400750934107E6
:1051A000609342077093430783EF95E00E94009C51
:1051B0008AE00E949CFB82E50E94DF31882399F0FF
:1051C0000E94A831AB01BC014093440750934507AE
:1051D000609346077093470784ED95E00E94009C1A
:1051E0008AE00E949CFB84E50E94DF31882309F459
:1051F0003EC60E94A831AB01BC0140933C075093CE
:105200003D0760933E0770933F0786EB95E00E9451
:10521000009C8AE00E949CFB2AC683E50E94DF3145
:10522000882351F00E94A831609360077093610752
:10523000809362079093630784E50E94DF3188239F
:1052400051F00E94A83160935C0770935D078093D2
:105250005E0790935F0782E40E94DF31882351F05C
:105260000E948EFA609358077093590780935A07EB
:1052700090935B0788E50E94DF31882351F00E94FC
:10528000A83160932C0770932D0780932E0790937D
:105290002F0789E50E94DF31882351F00E94A83151
:1052A00060933007709331078093320790933307F0
:1052B0008AE50E94DF31882351F00E94A831609373
:1052C000340770933507809336079093370785E44A
:1052D0000E94DF31882309F4CAC50E94A831609377
:1052E00038077093390780933A0790933B07BFC5FF
:1052F0004FEAC42E42E0D42E59E7E52E55E0F52EB4
:1053000000E010E0F60181916F010E94DF318823F7
:1053100051F00E94A831F7016083718382839383E7
:10532000C8010E94414A0F5F1F4FF4E0EF0EF11CCD
:105330000330110539F70C942B1F83E50E940E32C0
:10534000882309F494C5D4D770930B0260930A02A2
:105350008EC58DED90E00E94824A811188C583E55B
:105360000E940E32882309F482C50091260D10E0B8
:10537000BFD7000F111FF801E85FFD4F71836083F5
:105380008091260D90E08C01000F111F000F111F5E
:1053900098012C5F3D4F7901880F991FFC01E85F50
:1053A000FD4F60817181072E000C880B990B0F94C3
:1053B000CE1C2AE037ED43E25CE30F942D1DF8018B
:1053C000E952FB4F20813181428153810F942D1D81
:1053D000F701608371838283938349C580E5EFD7AA
:1053E000882309F444C584D76B017C0183E50E94BE
:1053F0000E32882319F07CD78B0102C00FEF1FEF0C
:10540000C8010196039708F032C5D7FC30C58C2D32
:10541000E8E3F6E09491891709F429C5319626E06E
:10542000E036F207B9F7E8C583E5F8D7882311F02D
:105430005FD702C064E071E079A368A380E5EED78E
:10544000882331F055D7693833E1730730F402C04F
:1054500068EE73E07A83698304C088E893E19A83F5
:105460008983BE01605E7F4FCE0101960E948DF65A
:10547000FEC485E4D3D781110EC080E5A0D7882370
:1054800081F066D76093190D70931A0D80931B0DF0
:1054900090931C0D06C03CD7882379F3E7EEFCE01F
:1054A0006DC089E48CD7882379F052D72CEA35EC8B
:1054B00047E25EE30F942D1D6093150D7093160D5A
:1054C0008093170D9093180D84E479D7882379F091
:1054D0003FD72CEA35EC47E25EE30F94212260933C
:1054E0001D0D70931E0D80931F0D9093200DE4EB06
:1054F000F4E384918F010F5F1F4F882321F00E94F6
:105500009CFBF801F6CF4091190D50911A0D609156
:105510001B0D70911C0D88E696E00E94009C2CEA01
:1055200035EC47E25EE36091150D7091160D8091A8
:10553000170D9091180D0F942122AB01BC0184E648
:1055400096E00E94009C2CEA35EC47E25EE3609115
:105550001D0D70911E0D80911F0D9091200D0F94C7
:105560002D1DAB01BC0180E696E00E94009C8AE004
:105570000E949CFB7CC40E949CFBF80184918F01DB
:105580000F5F1F4F8111F7CF03E613E0F801819100
:105590008F01882309F461CA0E949CFBF7CF80E544
:1055A0000ED7882349F0D4D66093110D7093120D55
:1055B0008093130D9093140D89E401D7882379F01B
:1055C000C7D62CEA35EC47E25EE30F942D1D6093BD
:1055D0000D0D70930E0D80930F0D9093100D84E4BC
:1055E000EED6882379F0B4D62CEA35EC47E25EE3B8
:1055F0000F9421226093090D70930A0D80930B0D77
:1056000090930C0DE4EBF4E384918F010F5F1F4F37
:10561000882321F00E949CFBF801F6CF4091110DE8
:105620005091120D6091130D7091140D84E796E066
:105630000E94009C2CEA35EC47E25EE360910D0D80
:1056400070910E0D80910F0D9091100D0F942122ED
:10565000AB01BC0180E796E00E94009C2CEA35EC8F
:1056600047E25EE36091090D70910A0D80910B0D88
:1056700090910C0D0F942D1DAB01BC018CE696E0B2
:105680000E94009C8AE00E949CFBF1C383E497D6B1
:10569000882311F12DD66F3F710519F010F06FEFCF
:1056A00070E07093C50C6093C40C162F8091541158
:1056B000811105C081E0809354110E94F4F560913E
:1056C0001D1170911E111CA39E012C5D3F4F4FE0D8
:1056D0008BE191E10E941E73E8E7F6E084918F016F
:1056E0000F5F1F4F882321F00E949CFBF801F6CF2B
:1056F0008091C40C9091C50C0E94EC6B8AE00E94D2
:105700009CFBB5C383E55BD6182F882369F020D6B0
:105710000F948922709352026093510221E0672B0B
:1057200009F020E02093920E80E549D6882351F0BD
:105730002091510230915202232B09F0FAD5809327
:10574000920E95C3111193C3E4EBF4E384918F019E
:105750000F5F1F4F882321F00E949CFBF801F6CFBA
:105760008091920E882319F065E374E002C06DE227
:1057700073E082EA96E00E94369C6091510270913B
:10578000520281E996E00E941D9CEDE8F6E08491CA
:105790008F010F5F1F4F882309F469C30E949CFB90
:1057A000F801F5CF0E9424D362C381E00E946349CF
:1057B0005EC380E00E9463495AC389E42FD68823E0
:1057C00019F096D5062F01C00FEF8AE427D688235B
:1057D00019F08ED5162F01C01FEF8AE5F0D5F82EEF
:1057E000811104C081E5EBD5D82E01C0D12C07FD75
:1057F00006C017FD04C0F1101CC0D1101AC0E7EE9E
:10580000FCE084918F010F5F1F4F811103C0E4ED15
:10581000F6E004C00E949CFBF801F3CF84918F0155
:105820000F5F1F4F882309F422C30E949CFBF801DD
:10583000F5CF023010F41230D0F0E7EEFCE08491A6
:105840008F010F5F1F4F811103C0E5EBF6E004C02D
:105850000E949CFBF801F3CF84918F010F5F1F4FD3
:10586000882309F404C30E949CFBF801F5CFE02EC5
:10587000000FFF08012F110F110B6AD5EE0CFF1C52
:10588000DD2071F0F701E00FF11FEE0FFF1FEE0FAB
:10589000FF1FE056F14F208131814281538103C0C7
:1058A00020E030E0A9010E0D1F1D000F111F000F99
:1058B000111F0056114F0F944521F8016083718329
:1058C00082839383D4C241E061E081E00E9446423A
:1058D0008111CDC20FE414E327EF30E13FA32EA3E3
:1058E000CE0101964C0128EAA22E24E3B22E1C011F
:1058F000F8016591759185919491EEA1FFA1C190F8
:10590000D190E190F190FFA3EEA3A70196010F942F
:1059100044212B013C01F1016083718382839383D5
:1059200020E030E040EA51EC0F946B2387FD0AC081
:1059300020E030E040EA51E4C301B2010F94C81CFA
:1059400018162CF4F501849118160CF44BC3F101D0
:10595000C190D190E190F1901F0120E030E040EA49
:1059600051ECC701B6010F946B2387FD0AC020E0FC
:1059700030E040EA51E4C701B6010F94C81C181684
:1059800084F5E7EEFCE084918F010F5F1F4F8111DA
:1059900003C0E2E1F7E004C00E949CFBF801F3CFF2
:1059A00084918F010F5F1F4F882321F00E949CFB81
:1059B000F801F6CF61E084E097E00E9409900E9430
:1059C000749E88E290E099A388A388EC90E09DA360
:1059D0008CA3BE01605E7F4FCE0184960E948DF63F
:1059E00046C20C5F1F4FFFEFAF1ABF0A2BE534E32F
:1059F0002017310709F07CCF99E7E92E95E0F92EC1
:105A000000E010E0F40181919191A191B1914F01D9
:105A1000F70181939193A193B1937F01C8010E94F3
:105A2000414A0F5F1F4F0330110561F70E949DE34C
:105A300060E084EF96E00E94099083E992E09DA3E4
:105A40008CA304E610E019A308A3BE016C5D7F4F90
:105A5000CE0180960E948DF68AEB92E09DA38CA3E6
:105A600019A308A3BE016C5D7F4FCE0180960E94F2
:105A70008DF6FDC10E941DDAFAC10E94CDBEF7C1AC
:105A800083E59DD4882319F054D491E089270E949E
:105A90002AC0EDC10E949CFBF80184918F010F5F29
:105AA0001F4F8111F7CFEDE8F7E084918F010F5F71
:105AB0001F4F882321F00E949CFBF801F6CF8AE556
:105AC0007ED4882351F144D46B017C0120E030E086
:105AD00040EF51EC0F946B2387FD0AC020E030E0CB
